:020000040800F2
:10000000684400208502000825130008A910000894
:10001000F1120008B5030008B31600080000000044
:10002000000000000000000000000000C501000802
:10003000B703000800000000210200083113000887
:100040009F0200089F0200089F0200089F0200080C
:100050009F0200089F0200089F0200089F020008FC
:100060009F0200089F0200089F0200089F020008EC
:100070009F0200089F0200089F0200089F020008DC
:100080009F0200089F0200089F0200089F020008CC
:100090009F0200089F0200089F0200089F020008BC
:1000A0009F020008011400089F0200089F02000838
:1000B0009F0200089F0200089F0200089F0200089C
:1000C0009F0200089F0200089F0200089F0200088C
:1000D0009F0200089F0200089F0200089F0200087C
:1000E0009F0200089F0200089F0200089F0200086C
:1000F0009F0200089F0200089F0200089F0200085C
:100100009F0200089F0200089F0200089F0200084B
:100110009F0200089F0200089F0200089F0200083B
:100120009F0200089F0200089F0200089F0200082B
:100130009F0200089F0200089F0200089F0200081B
:100140009F0200089F0200089F0200089F0200080B
:100150009F0200089F0200089F0200089F020008FB
:100160009F0200089F0200089F0200089F020008EB
:100170009F0200089F0200089F0200080000000084
:100180009F0200089F0200089F0200089F020008CB
:100190009F0200089F0200089F0200089F020008BB
:1001A00000000000000000009F020008DFF810D0EF
:1001B00000F0EEF80048004749170008AFF3008050
:1001C000684400202C4B19680868B0E8F04F80F3B1
:1001D0000988BFF36F8F4FF0000080F311887047DC
:1001E0000000000008480068006880F308884FF0AD
:1001F000000080F3148862B661B6BFF34F8FBFF37F
:100200006F8F00DF00BF00BF08ED00E0DFF80C00DB
:10021000016841F470010160704700BF88ED00E0A3
:10022000EFF30980BFF36F8F134B1A681EF0100FA6
:1002300008BF20ED108A20E9F04F106009B44FF09C
:10024000500080F31188BFF34F8FBFF36F8F01F021
:10025000CDFF4FF0000080F3118809BC19680868D1
:10026000B0E8F04F1EF0100F08BFB0EC108A80F31A
:100270000988BFF36F8F704728000020EFF30580D7
:10028000704700000648804706480047FEE7FEE743
:10029000FEE7FEE7FEE7FEE7FEE7FEE7FEE7FEE736
:1002A000F1130008AD0100082DE9F05F05460020BC
:1002B00092469B4688460646814640241BE02846D7
:1002C00041464746224600F053F853465A46C01A64
:1002D000914110D311461846224600F03AF82D1AE3
:1002E00067EB01084F4622460120002100F031F85B
:1002F00017EB00094E41201EA4F10104DFDC484643
:1003000031462A464346BDE8F09F40EA01039B0779
:1003100003D009E008C9121F08C0042AFAD203E07A
:1003200011F8013B00F8013B521EF9D27047D2B2DE
:1003300001E000F8012B491EFBD270470022F6E7CE
:1003400010B513460A4604461946FFF7F0FF20464B
:1003500010BD202A04DB203A00FA02F10020704789
:100360009140C2F1200320FA03F3194390407047F3
:10037000202A04DB203A21FA02F00021704721FAFA
:1003800002F3D040C2F12002914008431946704761
:10039000064C074D06E0E06840F0010394E80700D2
:1003A00098471034AC42F6D3FFF704FFD02D000875
:1003B000F02D0008FEE7704772B6FEE72DE9F84F12
:1003C000DFF8F8A10022012403254FF00F090AF1FC
:1003D000040BAAF1040E00BF0B6804FA02F63340C6
:1003E000B34270D10F7907F00307012F01D0022F1C
:1003F00016D187684FEA420805FA08FC27EA0C077D
:10040000D1F80CC00CFA08FC4CEA070CC0F808C084
:100410004768B7430E79C6F3001696403E434660E0
:100420000E79F643B6070AD0C7684FEA420C05FAC0
:100430000CF6B7438E6806FA0CF63E43C6600E799A
:1004400006F00306022E10D1D60800EB8608D8F875
:10045000206057074FEAD76C09FA0CF7BE430F69C3
:1004600007FA0CF73743C8F8207006684FEA420CC9
:1004700005FA0CF7BE430F7907F0030707FA0CF7EC
:10048000374307604E6816F4403F1CD04C4E376827
:1004900047F480473760366822F0030706F4804649
:1004A0000096484E07EB060CDCF8086897073F0FEC
:1004B00009FA07F826EA0806DFF80C81404503D15F
:1004C0004FF0000841E072E0DFF80081404502D1C2
:1004D0004FF0010839E0DFF8F880404502D14FF0D5
:1004E000020832E0DFF8EC80404502D14FF003080B
:1004F0002BE0DFF8E480404502D14FF0040824E00F
:10050000DFF8D880404502D14FF005081DE0DFF844
:10051000D080404502D14FF0060816E0DFF8C480D5
:10052000404502D14FF007080FE0DFF8BC8040459E
:1005300002D14FF0080808E0DFF8B080404502D152
:100540004FF0090801E04FF00A0808FA07F848EAF6
:100550000608CCF80888DAF800605746D1F804C0DD
:100560009E435FEACC2C00D51E433E60DBF8006062
:100570005F46D1F804C09E435FEA8C2C00D51E4331
:100580003E60DEF800607746D1F804C09E435FEA23
:100590008C3C00D51E433E60084F083F3E68D1F8B2
:1005A00004C09E435FEACC3C00D51E433E60521C13
:1005B000102AFFF411AFBDE8F88F0000083C01409D
:1005C0004438024000300140000002400004024074
:1005D00000080240000C02400010024000140240DB
:1005E00000180240001C024000200240002402408B
:1005F00001488068704700001800002002488168A8
:100600000278114481607047180000200B4810B533
:10061000016841F400710160016841F4806101608A
:10062000016841F480710160032000F099F80F2007
:1006300000F006F800F04AF8002010BD003C02402F
:1006400030B505461C4887B00024016841F001011F
:100650000160006806A900F00100009001A800F008
:100660002BF900F059F915494000B0FBF1F115489C
:10067000134A491E026040F2E732C0E90324C0E990
:100680000114846100F042FB040012D10D4800F017
:100690006BFB04000DD1192000F034F8102D07D2A7
:1006A00000222946192000F03BF80748056000E0C9
:1006B000012407B0204630BD4438024040420F00BC
:1006C00000000140300300201C0000200C4882B0D4
:1006D000016841F480410160006800F480400090AE
:1006E0000748001F016841F0805101600068002246
:1006F00000F0805000900F21901E02B000F010B862
:1007000044380240002809DB00F01F02012191401B
:100710004009800000F1E020C0F80011704700009F
:10072000F0B40E4B1B680C46C3F30223C3F107055C
:10073000042D00D90425191D072901D2002300E04A
:10074000DB1E012606FA05F1491E214099409E4014
:10075000761E16403143F0BC00F0B4BF0CED00E053
:10076000064900F0070208684FF6FF03184040EA08
:100770000220034A10430860704700000CED00E0BF
:100780000000FA052DE9F0470E46050065D0DFF8B8
:100790001481D8F80000F7B200F00F00B04207D281
:1007A00088F80070D8F8000000F00F00B04254D173
:1007B00028683D4C810712D5400703D5206840F4D6
:1007C000E05020602878000703D5206840F460409E
:1007D00020602068A96820F0F00008432060287895
:1007E000C0072DD0304968680839012812D0022886
:1007F00013D0032811D00968890700292DDA216850
:1008000021F0030101432160FFF7F2FE814641F22E
:10081000883A0EE009688903EFE709688901ECE787
:10082000FFF7E6FEA0EB0901514502D90320BDE820
:10083000F0872068696800F00C00B0EB810FEFD101
:10084000D8F80010404601F00F01B14207D90770F7
:10085000006800F00F00B04201D00120E7E72878DF
:10086000400705D52068E96820F4E050084320607F
:100870002878000706D52068296920F4604040EAFE
:10088000C100206000F058F82168084AC1F3031144
:10089000515CC8400649086006480068FFF7D0FE72
:1008A0000020C4E7003C024008380240842D0008C4
:1008B000240000201C0000200F2202600C4A136854
:1008C00003F003034360136803F0F00383601368CD
:1008D00003F4E053C36012684FF4E05303EAD2021A
:1008E00002610448006800F00F00086070470000D3
:1008F00008380240003C0240044805490068096885
:10090000044AC1F38221515CC84070472400002092
:1009100008380240942D0008044805490068096819
:10092000044AC1F34231515CC840704724000020A2
:1009300008380240942D0008154810B5006810F0E2
:100940000C02144813D01449042A0FD0082A0ED1DF
:100950000F4C241F2268236802F03F025B0207D578
:100960002068C0F38810A0FB010106E0084610BD16
:100970002168C1F38811A1FB00010023FFF794FC5B
:100980002168C1F30141491C4900B0FBF1F010BDE1
:10099000083802400024F400001BB7002DE9F84F8E
:1009A00004006ED02078DFF84C93C007A9F104054D
:1009B0004AD009F104000168C1F38101012908D07E
:1009C0000068C0F3810002280AD1D9F80000400273
:1009D00006D52868800337D560680028E1D033E069
:1009E0006068B0F5803F10D0B0F5A02F286810D017
:1009F00020F480302860286820F480202860606817
:100A0000A8B1FFF7F5FD06460DE0286840F48030F8
:100A1000F4E740F480202860F7E700BFFFF7E8FD27
:100A2000801B642873D828688003F7D50CE0FFF793
:100A3000DFFD064605E000BFFFF7DAFD801B6428F6
:100A4000F0D828688003F7D42078DFF8AC828007DC
:100A50004FF0000A3ED5A748001D016811F00C0FA9
:100A600008D00068C0F3810002280BD1D9F800003B
:100A7000400207D42868800716D5E068012800D115
:100A800012E033E1E068B8B10120C8F80000FFF7D8
:100A9000AFFD064605E000BFFFF7AAFD801B022858
:100AA000C0D828688007F7D52868216920F0F800A9
:100AB00040EAC10028600DE0C8F800A0FFF798FDEB
:100AC000064604E0FFF794FD801B02281FD8286823
:100AD0008007F7D42078000722D5864F87486169C0
:100AE000703771B101210160FFF782FD064604E015
:100AF000FFF77EFD801B022809D838688007F7D5EC
:100B00000EE0C0F800A0FFF773FD064605E082E0A6
:100B1000FFF76EFD801B02287DD838688007F7D468
:100B20002078400768D5DFF8CCB100270BF13C0BEB
:100B3000DBF80000C0000BD4DBF8001041F080515E
:100B4000CBF80010DBF80000012700F08050009087
:100B50006B4E3068C00510D4306840F4807030604F
:100B6000FFF746FD009005E0FFF742FD0099401AAF
:100B7000022850D83068C005F6D55E4EA0686C36A5
:100B800001280FD00528306810D020F00100306017
:100B9000306820F004003060A068B8B1FFF728FD8D
:100BA00000900FE0306840F00100F4E740F00400EE
:100BB0003060F7E7FFF71CFD0099411A41F28830D9
:100BC000814266D830688007F4D50EE0FFF710FD4B
:100BD000009007E0FFF70CFD0099411A41F28830C0
:100BE000814256D830688007F4D42FB1DBF800106A
:100BF00021F08051CBF80010A069C8B33D49091D10
:100C00000968C1F3810102294AD00228504607D061
:100C1000C8F8600000E03CE0FFF7EAFC04463BE077
:100C20004746C8F86000FFF7E3FC064605E000BF52
:100C3000FFF7DEFC801B02282BD828688001F7D440
:100C4000D4E907010843A16A2E4A490802EB014191
:100C5000626A41EA8211084394F82C1040EA01616B
:100C6000C9F8001001203866FFF7C2FC044606E010
:100C70003EE000BFFFF7BCFC001B022809D8286833
:100C80008001F7D534E000BFFFF7B2FC001B02285B
:100C900002D90320BDE8F88F28688001F4D427E04A
:100CA0000128F7D0D9F80000E26900F480019142F0
:100CB0001CD1226A00F03F01914217D147F6C07162
:100CC000626A0140B1EB821F10D1A26A4FF0FF337C
:100CD00000F4403103EB5202B1EB024F06D194F81D
:100CE0002C1000F07060B0EB016F01D00120D1E753
:100CF0000020CFE70438024000004742800E474200
:100D0000007000400000FFFF7047704710B50400FE
:100D100003D094F83D0010B107E0012010BD002081
:100D200084F83C00204600F01EF8022084F83D00C4
:100D3000211D206800F06AFB012084F8460084F839
:100D40003E0084F83F0084F8400084F8410084F8B5
:100D5000420084F8430084F8440084F8450084F895
:100D60003D00002010BD704790F83D10012901D0D2
:100D700001207047022180F83D100168CA6842F0E6
:100D80000102CA6000681149884214D0B0F1804F56
:100D900011D00F4988420ED00E4988420BD00E491F
:100DA000884208D00D49884205D00D49884202D0BA
:100DB0000C49884204D1816801F00701062903D05B
:100DC000016841F00101016000207047000001400E
:100DD0000004004000080040000C004000040140F6
:100DE000004001400018004070472DE9F0410446E2
:100DF0000068C66805694FF00007A90713D5B10759
:100E000011D5F91E016101202077206880698007D3
:100E1000204602D0FFF7E8FF04E000F07EF820460D
:100E200000F07CF82777680716D5700714D521687D
:100E30006FF004000861022020772068806910F4B8
:100E4000407F204602D0FFF7CFFF04E000F065F8B6
:100E5000204600F063F82777280715D5300713D50B
:100E600021686FF008000861042020772068C069BD
:100E70008007204602D0FFF7B7FF04E000F04DF8EE
:100E8000204600F04BF82777E80616D5F00614D573
:100E900021686FF010000861082020772068C06981
:100EA00010F4407F204602D0FFF79EFF04E000F0E0
:100EB00034F8204600F032F82777E80708D0F0072A
:100EC00006D021686FF001000861204600F028F884
:100ED000280608D5300606D521686FF08000086125
:100EE0002046FFF711FF680608D5700606D5216871
:100EF0006FF040000861204600F01CF8A8060AD5F3
:100F0000B00608D521686FF0200008612046BDE8D2
:100F1000F041FFF7FABEBDE8F0817047704700006E
:100F200000680349884201D1FFF768BB70470000A1
:100F300000000140704770B5040004D094F84100EF
:100F4000002510B106E0012070BD84F84050204615
:100F500000F024F8242084F841002068C16821F4BE
:100F60000051C160204600F0E5FA2068016921F4D3
:100F7000904101612068416921F02A0141612068A6
:100F8000C16841F40051C1606564202084F84100CB
:100F900084F842006563002070BD000010B586B083
:100FA000044614216846FFF7C9F9144920688842AD
:100FB00021D113480021026842F08042026000689B
:100FC00000F0804005900E481038026842F0100290
:100FD0000260006800F0100005904FF4C0700090AF
:100FE0000220CDE901010320039008200490694606
:100FF0000448FFF7E3F906B010BD00000078004098
:1010000040380240001002402DE9F843044690F8B1
:101010004100984616460D46202802D00220BDE821
:10102000F88385B17EB100206064212084F84100FE
:10103000FFF7DEFAA6848146E684A0682027B0F593
:10104000805F02D003E00120E9E7206910B12E465D
:1010500000250EE000260CE08021204600F0F0FA8A
:10106000A8B9C6B116F8010B21684860E08C401E93
:10107000E084E08C4B464FF00002CDF80080002861
:10108000EAD14FF04001204600F0DAFA40B184F88E
:1010900041700320C3E735F8020BC0F30800E3E713
:1010A00084F841700020BAE7FEE700000C4C4FF0D6
:1010B000FF354FF47A760BA000F0FCFA2946606900
:1010C00000F092FB10B90FA000F0F4FA14A000F0A9
:1010D000F1FA606900F060FB304600F048FBEAE797
:1010E00000000020486967685072696F72697479FE
:1010F0005F5461736B20476574204D757465780A81
:1011000000000000486967685072696F72697479FD
:101110005F5461736B2052756E6E696E670A0000D2
:10112000486967685072696F726974795F54617356
:101130006B2052656C65617365204D757465780D23
:101140000A000000154E164F164C4FF0FF394FF0B5
:1011500000084FF080554FF47A7A13A000F0AAFAF5
:101160004946606900F040FB10B916A000F0A2FAF1
:10117000C4F800803560BFF34F8FBFF36F8F2068D6
:10118000401C2060B842F5D315A000F093FA6069C6
:1011900000F002FB504600F0EAFADEE704ED00E062
:1011A00080841E00000000204C6F775072696F72BF
:1011B0006974795F5461736B20476574204D757451
:1011C00065780A004C6F775072696F726974795F45
:1011D0005461736B2052756E6E696E670A0A000067
:1011E0004C6F775072696F726974795F5461736B79
:1011F0002052656C65617365204D757465780D0AC4
:101200000000000010B59EB000201C901D901CA88E
:1012100000F0B9FA174C1C22174960616846FFF7C5
:1012200074F80021684600F011FB134960601C222D
:101230001C3107A8FFF769F8002107A800F006FB9A
:101240000D49A0601C2238310EA8FFF75EF800217E
:101250000EA800F0FBFA0849E0601C22543115A8E2
:10126000FFF753F8002115A800F0F0FA20611EB036
:1012700010BD000000000020142D00080D4808B526
:10128000016841F001010160016801F00101009174
:10129000016841F080010160016801F08001009166
:1012A000016841F010010160006800F0100000903A
:1012B00008BD0000303802400C4810B50A490160F2
:1012C0004FF4E1314160002181600C22C160C0E92E
:1012D00004128161C161FFF72EFE002803D0BDE832
:1012E0001040FFF769B810BD00780040E802002008
:1012F000FEE700004FF47A7403A000F0DBF920460B
:1013000000F035FAF8E700004D69645072696F72B9
:101310006974795F5461736B2052756E6E696E6784
:101320000A000000FEE7012000F021FAFBE70000C0
:1013300010B5502080F31188BFF34F8FBFF36F8F2C
:1013400001F054FB18B104494FF0805008600020B0
:1013500080F3118810BD000004ED00E030B593B0BB
:1013600030216846FEF7EAFF14210CA8FEF7E6FFDD
:101370001D480025016841F080510160006800F0BF
:10138000805011901948016841F4404101600068A3
:10139000022400F4404011900120009000040190CC
:1013A0008001CDE9064006200890A820CDE9090477
:1013B00004200B906846FFF7F1FA08B172B6FEE719
:1013C0000CA90F2081E831004FF4A0500F904FF48A
:1013D0008050109005210CA8FFF7D4F9002801D007
:1013E00072B6FEE713B030BD4038024000700040D6
:1013F0000248016841F470010160704788ED00E027
:101400000148FFF7F2BC000030030020F0B502688D
:10141000294C2A4D2A4E2B4F2B4B4FF0804CA0428B
:1014200009D0604507D0A84205D0B04203D0B842E9
:1014300001D0984204D122F0700E4A6842EA0E02AE
:10144000A0421BD0604519D0A84217D0B04215D099
:10145000B84213D0984211D01C4DA8420ED01C4D5A
:10146000A8420BD01B4DA84208D01B4DA84205D066
:101470001A4DA84202D01A4DA84203D122F4407559
:10148000CA682A434D6922F080022A4302608A68B2
:10149000C2620A688262A04201D0984201D1096901
:1014A0000163012141610169C90703D0016921F08C
:1014B00001010161F0BD0000000001400004004096
:1014C00000080040000C00400004014000400140C2
:1014D000004401400048014000180040001C00404A
:1014E0000020004001680C3151E8002F22F4907276
:1014F00041E80023002BF5D10168143151E8002F99
:1015000022F0010241E80023002BF5D1016B0129F3
:1015100009D101680C3151E8002F22F0100241E896
:101520000023002BF5D1202180F842100021016317
:101530007047000070B5044600680169E26821F454
:101540004051114301612169A068E2690843616962
:10155000114308432168CA6849F20C639A43024365
:10156000CA6020684169A26921F440711143416158
:1015700031492068884202D03049884202D1FFF7C1
:10158000CBF901E0FFF7B8F9E269002319216425DE
:101590003226B2F5004F626828D0A0FB0101930FFC
:1015A0009200FEF781FE0146B0FBF5F06FF01802E5
:1015B000504301EB800006EB0010B0FBF5F000F0AB
:1015C000F002B1FBF5F002EB0012B1FBF5F06FF0A9
:1015D0001803584301EB800006EB0010B0FBF5F058
:1015E00000F00F0021681044886070BDA0FB01016D
:1015F00092185B41FEF758FE0146B0FBF5F0020180
:10160000B1FBF5F06FF01803584301EB800006EBD7
:10161000C000B0FBF5F000F0F80002EB4002B1FBB7
:10162000F5F0584301EB800006EBC000B0FBF5F08D
:1016300000F00700D6E70000001001400014014050
:101640002DE9F843984617460D460446089E24E0C7
:10165000701C22D0FEF7CCFFA0EB0800B0421AD8D5
:10166000CEB12068C168490717D5802D15D0402D0F
:1016700013D00168C94309070FD4016800254068E9
:1016800000902046FFF72EFF0820606484F8405049
:101690000120BDE8F8830320FBE72068006835EAF5
:1016A000000004D00020B842D2D00020F1E7012091
:1016B000F9E7FEE7014A024900F023B825170008C0
:1016C000900000200907090E002804DB00F1E0204B
:1016D00080F80014704700F00F0000F1E02080F85F
:1016E000141D704702E008C8121F08C1002AFAD171
:1016F00070477047002001E001C1121F002AFBD192
:1017000070472DE9F04116460F460446002503E0D8
:101710003946B047641C6D1C20780028F8D1284653
:10172000BDE8F08113B54FF6FF7301226946024808
:10173000FFF76AFC00981CBDE8020020EFF305806B
:10174000002800D001207047FEF760FFFFF706FE7B
:10175000FFF794FDFFF7B0FDFFF754FD00F00EF822
:10176000FEE701460020842900D0C81C704710B550
:1017700000B9012000F060FC002010BD10B500F0A1
:10178000F7FC002010BD41684FF0010009B100F0E6
:10179000E0BD00F0D3BD000038B50024054600943C
:1017A000FFF7CCFF90B16946284600F027FF0128DB
:1017B00001D0FF2038BD009888B10A494FF0805011
:1017C0000860BFF34F8FBFF36F8F08E000231A4606
:1017D0001946284600F062FE012800D0FF2420466A
:1017E00038BD000004ED00E038B505004FF0000002
:1017F00000900FD00024481C0ED001B10C46FFF71A
:101800009DFFB8B16A460021284600F045FF012837
:1018100016D104E0802038BD4FF0FF34EFE7009888
:1018200080B109494FF080500860BFF34F8FBFF37C
:101830006F8F07E02146284600F07CFF012801D089
:10184000FF2038BD002038BD04ED00E07FB50D4617
:1018500004464169B0F9080081B1A16971B1FFF78F
:1018600080FFD4E905128DE80700D4E900102B466B
:10187000226901F082F8039004B070BDFFF771FF98
:1018800003A9CDE90001208A2B4682B2D4E90010D9
:1018900001F046F8012801D00020EDE70398EBE7BE
:1018A0002DE9F041184C0F460546E6682068001DFA
:1018B00000F0D0FA38B9206890F82C100120884048
:1018C000216981432161681C07D137B12168BDE8D6
:1018D000F0410E48091D00F001BB20683544B542B7
:1018E0004560216805D2A06BBDE8F041091D00F0FC
:1018F000DDBA606B091D00F0D9FAA06A854200D2FA
:10190000A562BDE8F08100002800002054040020FA
:101910002DE9F041054600F0EDFA2E4CA068401C80
:10192000A06020682C4F10B1606940B32DE02560A5
:10193000A068012829D1002606EB860007EB80006D
:1019400000F0A6FA761C072EF6D323488C3000F060
:101950009FFA2148A03000F09BFA1F48B43000F0F5
:1019600097FA1D48C83000F093FA1B48DC3000F0AD
:101970008FFA19488C3060631430A06305E020684A
:10198000E96AC06A884200D82560606A401C6062CB
:10199000E96A0120226988401043206101EB81003F
:1019A00007EB8000291D00F099FA00F0C3FA606986
:1019B00000280CD02068E96AC06A884207D207492B
:1019C0004FF080500860BFF34F8FBFF36F8FBDE8BB
:1019D000F0810000280000207803002004ED00E0E2
:1019E00030B4026C0B46002A0BD0C1681144C160B0
:1019F0008468A14201D30168C16030BC1846FEF77B
:101A000084BC30BC70472DE9F041856B1746044615
:101A10000026026C82B1C7B1E068FEF776FCE1688F
:101A2000206C091AE1602268914202D2A168081A6A
:101A3000E060022F16D017E02068A8B9A06801F076
:101A40003BF806460020A0600EE06068FEF75DFCF3
:101A5000216C606808446060A168884204D32068F3
:101A6000606001E005B16D1E6D1CA5633046BDE8E8
:101A7000F08110B5044690F8510058B101280CD0FF
:101A800002280FD0502080F31188BFF34F8FBFF38F
:101A90006F8FFEE7206B00F061FA2046BDE8104032
:101AA00000F05CBA10BD000010484FF470514207BE
:101AB00006D0C01D0D4920F00700411AC1F5705134
:101AC0000B4A00230144C2E900030839183A21F007
:101AD000070111604B600B600B1AC0E900139360A3
:101AE0004FF00040536050617047000068040020D0
:101AF0007C000020144E154CA6F1C8074FF080580A
:101B0000DFF84C9012E000BF00F0F4F9F068C5680F
:101B1000281D00F09FF9A068401EA0606068401E6C
:101B2000606000F007FA2846FFF7A3FF606800280E
:101B3000EAD138680128F9D9C9F80080BFF34F8F7E
:101B4000BFF36F8FF2E70000400400202800002060
:101B500004ED00E0002807D00021816001600B4601
:101B60000A46C16000F09ABC70470346009829B14C
:101B70000260C0E90F31012100F04CBC0060F8E7C1
:101B80002DE9F0479A46DDE9098481466FF00303A9
:101B9000206B03EB82021044089E20F007077807B1
:101BA00007D0502080F31188BFF34F8FBFF36F8FA2
:101BB000FEE7002561B1002023180A5C83F8342079
:101BC0000A5C12B1401C1028F6D384F8435001E09F
:101BD00084F83450072E00D30626E662C4E9116566
:101BE000201D00F060F904F1180000F05CF9246198
:101BF000C6F107006462A061E56484F85050524663
:101C00004946384600F010F92060B8F1000F01D0C5
:101C1000C8F80040BDE8F08730B5114900E0114632
:101C20000A688242FBD34B685C18844203D1406847
:101C300018444860084643681C18944209D1084C6F
:101C4000183C2468A24209D052681A4442600A68CB
:101C500012680260814200D0086030BD0460F9E77C
:101C60007C00002010B5044600F044F9A06B28B1B8
:101C70005FF0000400F05EF9204610BD0124F9E792
:101C80000648416B096829B1416BC968C968496850
:101C9000816270474FF0FF31FAE700002800002012
:101CA00008484068401C4FF0500080F3118804D071
:101CB000BFF34F8FBFF36F8FFEE7BFF34F8FBFF3BD
:101CC0006F8FFEE7840000202DE9F041044600F00C
:101CD00011F994F9455004F1240609E0606A48B10D
:101CE000304600F07BFF08B100F0D4F96D1E6DB2F4
:101CF000002DF3DC4FF0FF3684F8456000F01AF950
:101D000000F0F8F894F9445004F1100709E0206954
:101D100048B1384600F062FF08B100F0BBF96D1E13
:101D20006DB2002DF3DC84F84460BDE8F04100F0B2
:101D300001B900002DE9F0410546002700F04EFAF8
:101D4000324E306808B9FFF7AFFE706905424ED1D8
:101D5000C5B3083568070ED005F00700C0F10800CC
:101D60000544680707D0502080F31188BFF34F8FD8
:101D7000BFF36F8FFEE72DB37068854237D82348D5
:101D8000183001460C6801E020460C466168A94203
:101D900002D221680029F7D131688C4227D0076828
:101DA0002168016060680837411B10290FD960194C
:101DB000420708D0502080F31188BFF34F8FBFF344
:101DC0006F8FFEE713E041606560FFF725FF6168F4
:101DD0007068401A7060B268904200D2B06070695A
:101DE00001430020C4E90001F068401CF06000F0ED
:101DF0002FFF780707D0502080F31188BFF34F8F53
:101E0000BFF36F8FFEE73846BDE8F0816400002025
:101E10000449086818B10868826C521C826408681A
:101E2000704700002800002010B5031F4FF0807499
:101E30001C601B1F21F001011960191F044B0B606E
:101E400014390A60091F6FF0020244380A6010BD9D
:101E5000A11C0008D0E9013201699A60D0E9012390
:101E60005A604A68824201D182684A600022026157
:101E70000868401E0860086870470000034B036054
:101E800003F1540008608020106070479400002027
:101E900000F108014FF0FF32C0E90112C160016199
:101EA00000210160704700210161704730B50B6867
:101EB0005A1C02D000F1080202E0026904E0224646
:101EC000546825689D42FAD953684B6099608A60CE
:101ED000516008610168491C016030BD42684A6078
:101EE00093688B6093685960916008610168491C30
:101EF00001607047502080F31188BFF34F8FBFF30C
:101F00006F8F0A494868401C486001280CD1084876
:101F1000006810F0FF0F07D0502080F31188BFF346
:101F20004F8FBFF36F8FFEE77047000084000020E3
:101F300004ED00E00849486828B1401E486001D11E
:101F400080F311887047502080F31188BFF34F8FC2
:101F5000BFF36F8FFEE700008400002070B50028FB
:101F60002AD0164DA0F1080460686969084207D1BB
:101F7000502080F31188BFF34F8FBFF36F8FFEE7C0
:101F800022683AB1502080F31188BFF34F8FBFF31E
:101F90006F8FFEE78843606000F020F96068696831
:101FA000084468602046FFF737FE2869401C286116
:101FB000BDE8704000F04CBE70BD00006400002021
:101FC0004FF0E02000210161816105494FF47A72F0
:101FD0000968B1FBF2F1491E4161072101617047B7
:101FE0002400002010B5FEF749F9114910280ED33E
:101FF00000F1E02090F8F0030A78904207D25020D8
:1020000080F31188BFF34F8FBFF36F8FFEE709484E
:102010000068896800F4E060884207D9502080F3A6
:102020001188BFF34F8FBFF36F8FFEE710BD000025
:10203000840000200CED00E010B5020014D00F4821
:10204000006B38B1502080F31188BFF34F8FBFF37E
:102050006F8FFEE700F0C2F800211046FFF720FC6A
:1020600000F0F6FD002807D105494FF080500860C8
:10207000BFF34F8FBFF36F8F10BD0000280000200B
:1020800004ED00E002490A6A0260C96841607047D5
:102090002800002001490120C86170472800002065
:1020A00010B50C4650B1094909681831FFF7FEFE1A
:1020B0002046BDE810400121FFF7F2BB502080F31D
:1020C0001188BFF34F8FBFF36F8FFEE7280000200A
:1020D00070B5040047D0A26CA2B1606C884200D3F6
:1020E0000146E06A88423ED0012A3CD11E4D2A6852
:1020F00094420FD1502080F31188BFF34F8FBFF36C
:102100006F8FFEE7502080F31188BFF34F8FBFF32E
:102110006F8FFEE7E162A269002A02DBC1F10701CD
:10212000A161124E00EB8000616906EB80008142E4
:1021300019D1201DFFF78EFE012130B994F82C0033
:102140002A6901FA00F082432A61E06A2A69814023
:102150001143296100EB800006EB8000211DBDE8E2
:102160007040FFF7BBBE70BD280000207803002040
:1021700010B586B00024039405AA04A903A804940A
:10218000FFF77CFEDDE903010094CDE90110002397
:102190000EA11048059A00F0F0FB0F490028C86214
:1021A00011D0502080F31188BFF34F8FBFF36F8F92
:1021B0004FF0FF30886201204861CC6006B0BDE876
:1021C000104000F041B806B010BD000049444C4535
:1021D00000000000F51A0008280000200248016BEA
:1021E000491C016370470000280000201448016B5F
:1021F00011B10121C16170470021C1610169B1FACA
:1022000081F1C1F11F0101EB81020E4951F8223029
:102210006BB101EB820101F108034A6852684A6020
:102220009A4201D152684A60D168016070475020DB
:1022300080F31188BFF34F8FBFF36F8FFEE700006D
:1022400028000020780300201CB537480168374A71
:10225000914207D1502080F31188BFF34F8FBFF315
:102260006F8FFEE700683149491E884207D1502030
:1022700080F31188BFF34F8FBFF36F8FFEE72C49B8
:1022800008780190FF20087008788DF800009DF80C
:1022900000009DF8002000F0F000904207D0502090
:1022A00080F31188BFF34F8FBFF36F8FFEE79DF868
:1022B0000000204C00F0500020700720A06005E0D6
:1022C0009DF8002052008DF80020401E9DF800204F
:1022D0001206F5D4A060032807D0502080F311889F
:1022E000BFF34F8FBFF36F8FFEE74FF44070A060D6
:1022F000019808700C482030016841F470010160B9
:10230000016841F070410160FFF75AFE00206060F3
:10231000FDF77CFF0848016841F040410160FDF78E
:1023200061FF00201CBD000000ED00E071C20F4104
:1023300000E400E08400002034EF00E010B5024625
:102340000021012000F012F80446FFF703FC2046AC
:1023500010BD38B50B46002200901146012000F058
:1023600026F80446FFF7F6FB204638BDF8B51746B9
:102370000E46050013D005FB06F04830FFF7DAFCE7
:1023800004000AD0002084F8460004F148023B46CD
:10239000314628460094FFF7E8FB2046F8BD502060
:1023A00080F31188BFF34F8FBFF36F8FFEE738B50F
:1023B000049D18B153B1CAB181B120E0502080F31F
:1023C0001188BFF34F8FBFF36F8FFEE7502080F36C
:1023D0001188BFF34F8FBFF36F8FFEE7502080F35C
:1023E0001188BFF34F8FBFF36F8FFEE739B15020D5
:1023F00080F31188BFF34F8FBFF36F8FFEE7482440
:102400001C46012384F846302B460094FFF7ADFBB1
:10241000204638BD70B50D46040025D0FFF76AFD93
:10242000D4E90F20216802FB0011A1600021A16303
:10243000216861600A46D4E90F01401E00FB0121BA
:10244000E16021464FF0FF3001F8440F487004F17D
:1024500010008DB1FFF71CFD04F12400FFF718FDFB
:10246000FFF768FD012070BD502080F31188BFF395
:102470004F8FBFF36F8FFEE721690029F0D000F086
:10248000ADFB0028ECD004494FF080500860BFF34A
:102490004F8FBFF36F8FE3E704ED00E02DE9FF47B7
:1024A00082B01D468A464FF00008040003D0BAF1FE
:1024B000000F08D011E0502080F31188BFF34F8F38
:1024C000BFF36F8FFEE7206C38B1502080F3118886
:1024D000BFF34F8FBFF36F8FFEE7022D0AD1E06B82
:1024E000012807D0502080F31188BFF34F8FBFF32E
:1024F0006F8FFEE700F06CFA3F4F4FF000094FF08E
:10250000805648B9049838B1502080F31188BFF341
:102510004F8FBFF36F8FFEE7FFF7ECFCA06BE16B13
:10252000884207D3022D05D00498D0B1B8F1000F2E
:102530001AD01EE02A4651462046FFF764FA616A27
:1025400019B104F1240000F049FB20B13E60BFF353
:102550004F8FBFF36F8FFFF7EDFC012006B0BDE892
:10256000F087FFF7E7FC22E06846FFF78BFD4FF0AE
:102570000108FFF7DFFCFFF731FEFFF7BBFC94F922
:102580004400401C01D184F8449094F94500401C5B
:1025900001D184F84590FFF7CDFC04A9684600F00E
:1025A00085F930B12046FFF78FFB00F051FB00208A
:1025B000D4E7FFF79FFCA06BE16B884213D1FFF7D4
:1025C000B9FC04F110000499FFF76AFD2046FFF7FB
:1025D0007BFB00F03DFB00289ED13E60BFF34F8F98
:1025E000BFF36F8F98E7FFF7A5FC2046FFF76CFB62
:1025F00000F02EFB90E7000004ED00E070B50E4601
:10260000040009D0206C78B1502080F31188BFF30A
:102610004F8FBFF36F8FFEE7502080F31188BFF319
:102620004F8FBFF36F8FFEE7206848B9A06838B1BD
:10263000502080F31188BFF34F8FBFF36F8FFEE7F9
:10264000FFF7D0FC5020EFF3118580F31188BFF322
:102650004F8FBFF36F8FA16BE06B884218D994F94D
:102660004500491CA163411C04D0401C84F845006E
:1026700001200EE0606A0028FAD004F1240000F086
:10268000ADFA0028F4D0002EF2D001203060EFE740
:10269000002085F3118870BD2DE9F04790468946EA
:1026A000040003D0B9F1000F08D011E0502080F3EE
:1026B0001188BFF34F8FBFF36F8FFEE7206C38B1E7
:1026C000502080F31188BFF34F8FBFF36F8FFEE769
:1026D000FFF788FC5020EFF3118680F31188BFF3D9
:1026E0004F8FBFF36F8FA76BF7B194F944504946F2
:1026F0002046FFF775F97F1EA763681C04D06D1C88
:1027000084F84450012010E020690028FAD004F138
:10271000100000F063FA0028F4D0B8F1000FF1D0F7
:102720000121C8F80010EDE7002086F31188BDE80C
:10273000F08700002DE9F343002683B004003546FE
:1027400009D0206C78B1502080F31188BFF34F8FEF
:10275000BFF36F8FFEE7502080F31188BFF34F8FD8
:10276000BFF36F8FFEE700F033F9DFF83C814FF0E5
:1027700000094FF0805748B9049838B1502080F3D1
:102780001188BFF34F8FBFF36F8FFEE7FFF7B2FBE8
:10279000A06BC8B1401EA063206810B9FFF738FBDA
:1027A000A060206950B104F1100000F017FA28B1C0
:1027B000C8F80070BFF34F8FBFF36F8FFFF7BAFBFE
:1027C000012005B0BDE8F083049808B166B10FE0C0
:1027D0003DB1502080F31188BFF34F8FBFF36F8F4F
:1027E000FEE7FFF7A7FB5DE06846FFF74BFC01261D
:1027F000FFF7A0FBFFF7F2FCFFF77CFB94F9440026
:10280000401C01D184F8449094F94500401C01D14A
:1028100084F84590FFF78EFB04A9684600F046F85F
:102820000028204612D0FFF74FFA00F011FA204698
:10283000FFF718FA0028A9D09DB3FFF75BFB606A89
:1028400050B3206B0068C0F1070126E0FFF70AFAD9
:10285000E0B1206838B9FFF74DFBA06800F078F9C7
:102860000546FFF767FB04F124000499FFF718FC05
:102870002046FFF729FA00F0EBF9002886D1C8F8C6
:102880000070BFF34F8FBFF36F8F7FE72046FFF7D6
:102890001BFA00F0DDF979E70021A068FFF718FCCA
:1028A0009FE7FFE700208CE704ED00E02DE9F04111
:1028B0000C46050011D0C4B1FFF71CFB174BDA68BA
:1028C0006E682068911B471C17D02F681B6A9F42B7
:1028D00019D0964217D8012410E0502080F31188B7
:1028E000BFF34F8FBFF36F8FFEE7502080F3118847
:1028F000BFF34F8FBFF36F8FFEE70024FFF71AFB84
:102900002046BDE8F081884205D9401A206028465B
:10291000FFF7B8FBF1E700202060DCE7280000208B
:102920002DE9FF5F8346DDE90E87994616468A4604
:102930009000FFF7FFF905001CD05420FFF7FAF9CB
:10294000040014D00020256384F85100CDE9024032
:10295000CDE900874B46324651465846FFF710F9FD
:102960002046FEF7D5FF012004B0BDE8F09F2846C1
:10297000FFF7F4FA4FF0FF30F6E7F0B585B0DDE988
:102980000B640A9DA6B1DCB154270097266302268A
:1029900084F85160002604AFCDE90246CDE9005726
:1029A000FFF7EEF82046FEF7B3FF049805B0F0BD40
:1029B000502080F31188BFF34F8FBFF36F8FFEE776
:1029C000502080F31188BFF34F8FBFF36F8FFEE766
:1029D0000548416919B1006B18B10020704701200A
:1029E0007047022070470000280000202DE9F041C8
:1029F0002F4C0026206B28B1A069401CA0613046F6
:102A0000BDE8F081E5686D1CE56013D1606B00687E
:102A100038B1502080F31188BFF34F8FBFF36F8F11
:102A2000FEE7606BA16B6163A063206A401C2062BB
:102A3000FFF726F9A06ADFF87C80854209D3606B36
:102A40000068A0B1606BC068C7687868854211D221
:102A5000A0622068C06A00EB800158F821000128BC
:102A600000D90126E0690028C9D00126C7E74FF048
:102A7000FF30EDE7381DFFF7EDF9B86A18B107F13F
:102A80001800FFF7E7F9F96A01202269884010432E
:102A9000206101EB810108EB8100391DFFF71EFA6F
:102AA000F86A2168C96A8842C9D30126C7E70000CD
:102AB000280000207803002070B504004FF00001CA
:102AC00040D0214D2868844207D0502080F31188DF
:102AD000BFF34F8FBFF36F8FFEE7A06C38B1401E7E
:102AE000A064636CE26A9A422CD040B12AE0502084
:102AF00080F31188BFF34F8FBFF36F8FFEE7201D68
:102B0000FFF7A8F9114A012150B9E06A00EB8003F0
:102B100052F8233023B92B6901FA00F083432B616B
:102B2000606CE062C0F10700A061E06A2B6981403F
:102B30001943296100EB800002EB8000211DFFF7A3
:102B4000CDF90121084670BD28000020780300203F
:102B500070B504004FF0000034D01E4DE16A2A68C1
:102B6000D26A91422FD2A069002804DB2868C06A8B
:102B7000C0F10700A061184E01EB8101606906EB0E
:102B8000810188421AD1201DFFF764F9012130B973
:102B900094F82C002A6901FA00F082432A6128681F
:102BA000C06AE0622A6981401143296100EB80001C
:102BB00006EB8000211DFFF791F902E02868C06A4A
:102BC000E062012070BD616C2A68D26A9142F8D33C
:102BD00070BD000028000020780300202DE9F0419E
:102BE000C068C468ACB104F118000746FFF732F9B9
:102BF000154D286B0126A0B139461448FFF76EF930
:102C0000E06A2968C96A88421CD90120EE61BDE8E2
:102C1000F081502080F31188BFF34F8FBFF36F8F87
:102C2000FEE7201DFFF716F9E16A2A6906FA01F0AE
:102C30001043286101EB81000449B43901EB8000A5
:102C4000211DDBE70020E2E7280000202C04002003
:102C50002DE9F0472C4D00242746286B38B1FFF7AB
:102C600049F9286B401E2863286B40B146E050208C
:102C700080F31188BFF34F8FBFF36F8FFEE7A96812
:102C8000224E0120D1B3A6F1B40980463068E8B1E4
:102C9000F068C46804F11800FFF7DCF8201DFFF7A6
:102CA000D9F8E06A2A6908FA00F11143296100EBBA
:102CB000800109EB8100211DFFF710F9E06A296806
:102CC000C96A8842E2D3C5F81C80DFE70CB1FEF781
:102CD000D7FFAC6944B14646FFF788FE00B1EE610C
:102CE000641EF9D10020A861E86938B108490127BC
:102CF00038070860BFF34F8FBFF36F8FFFF71AF9E4
:102D00003846BDE8F0870000280000202C04002091
:102D100004ED00E09C2D00082713000800000000CF
:102D20000000000080000000000000000000000023
:102D3000C42D000845110008FDFF00000000000040
:102D4000800000000000000000000000A82D000826
:102D5000F5120008FDFF00000000000080000000E8
:102D60000000000000000000B42D0008AD100008B5
:102D7000FDFF0000000000008000000000000000D7
:102D80000000000000000000000000000102030439
:102D9000060708090000000001020304646566617B
:102DA000756C745461736B004D69645072696F7215
:102DB00069747900486967685072696F72697479DB
:102DC000000000004C6F775072696F72697479006F
:102DD000F02D00080000002094000000E416000818
:102DE000842E000894000020D4430000F41600084C
:102DF00000000000000000000000000000000000D3
:102E000000000000000000000100000010000000B1
:102E1000000000000024F40000000000000000009A
:102E200000000000000000000000000000000000A2
:102E30000000000000000000000000000000000092
:102E40000000000000000000000000000000000082
:102E50000000000000000000000000000000000072
:102E60000000000000000000000000000000000062
:102E70000000000000000000AAAAAAAA00000000AA
:042E8000000000004E
:04000005080001AD41
:00000001FF
